{
  "contractName": "AuthDoc",
  "abi": [
    {
      "inputs": [],
      "stateMutability": "nonpayable",
      "type": "constructor"
    },
    {
      "inputs": [
        {
          "internalType": "bytes32",
          "name": "",
          "type": "bytes32"
        }
      ],
      "name": "Students",
      "outputs": [
        {
          "internalType": "address",
          "name": "owner",
          "type": "address"
        },
        {
          "internalType": "string",
          "name": "idDip",
          "type": "string"
        },
        {
          "internalType": "string",
          "name": "cin",
          "type": "string"
        },
        {
          "internalType": "string",
          "name": "diploma",
          "type": "string"
        },
        {
          "internalType": "string",
          "name": "studentName",
          "type": "string"
        },
        {
          "internalType": "string",
          "name": "cne",
          "type": "string"
        },
        {
          "internalType": "string",
          "name": "image",
          "type": "string"
        }
      ],
      "stateMutability": "view",
      "type": "function",
      "constant": true
    },
    {
      "inputs": [],
      "name": "numberOfStudents",
      "outputs": [
        {
          "internalType": "uint256",
          "name": "",
          "type": "uint256"
        }
      ],
      "stateMutability": "view",
      "type": "function",
      "constant": true
    },
    {
      "inputs": [
        {
          "components": [
            {
              "internalType": "address",
              "name": "owner",
              "type": "address"
            },
            {
              "internalType": "string",
              "name": "idDip",
              "type": "string"
            },
            {
              "internalType": "string",
              "name": "cin",
              "type": "string"
            },
            {
              "internalType": "string",
              "name": "diploma",
              "type": "string"
            },
            {
              "internalType": "string",
              "name": "studentName",
              "type": "string"
            },
            {
              "internalType": "string",
              "name": "cne",
              "type": "string"
            },
            {
              "internalType": "string",
              "name": "image",
              "type": "string"
            }
          ],
          "internalType": "struct AuthDoc.Student[]",
          "name": "students",
          "type": "tuple[]"
        }
      ],
      "name": "addStudent",
      "outputs": [
        {
          "internalType": "bool",
          "name": "",
          "type": "bool"
        }
      ],
      "stateMutability": "nonpayable",
      "type": "function"
    },
    {
      "inputs": [
        {
          "internalType": "string",
          "name": "_id",
          "type": "string"
        }
      ],
      "name": "getStudent",
      "outputs": [
        {
          "internalType": "string",
          "name": "",
          "type": "string"
        },
        {
          "internalType": "string",
          "name": "",
          "type": "string"
        },
        {
          "internalType": "string",
          "name": "",
          "type": "string"
        },
        {
          "internalType": "string",
          "name": "",
          "type": "string"
        },
        {
          "internalType": "string",
          "name": "",
          "type": "string"
        },
        {
          "internalType": "string",
          "name": "",
          "type": "string"
        }
      ],
      "stateMutability": "view",
      "type": "function",
      "constant": true
    },
    {
      "inputs": [
        {
          "internalType": "string",
          "name": "_id",
          "type": "string"
        }
      ],
      "name": "getIdDip",
      "outputs": [
        {
          "internalType": "string",
          "name": "idDip",
          "type": "string"
        }
      ],
      "stateMutability": "view",
      "type": "function",
      "constant": true
    },
    {
      "inputs": [
        {
          "internalType": "bytes32",
          "name": "_hash",
          "type": "bytes32"
        }
      ],
      "name": "getIdDipFromQrCode",
      "outputs": [
        {
          "internalType": "string",
          "name": "idDip",
          "type": "string"
        }
      ],
      "stateMutability": "view",
      "type": "function",
      "constant": true
    },
    {
      "inputs": [
        {
          "internalType": "string",
          "name": "_id",
          "type": "string"
        }
      ],
      "name": "verifyDoc",
      "outputs": [
        {
          "internalType": "bool",
          "name": "",
          "type": "bool"
        }
      ],
      "stateMutability": "view",
      "type": "function",
      "constant": true
    },
    {
      "inputs": [
        {
          "internalType": "bytes32",
          "name": "_hash",
          "type": "bytes32"
        }
      ],
      "name": "verifyQrCode",
      "outputs": [
        {
          "internalType": "bool",
          "name": "",
          "type": "bool"
        }
      ],
      "stateMutability": "view",
      "type": "function",
      "constant": true
    },
    {
      "inputs": [
        {
          "internalType": "string",
          "name": "_id",
          "type": "string"
        }
      ],
      "name": "downloadDip",
      "outputs": [
        {
          "internalType": "string",
          "name": "",
          "type": "string"
        }
      ],
      "stateMutability": "view",
      "type": "function",
      "constant": true
    },
    {
      "inputs": [
        {
          "internalType": "bytes32",
          "name": "_hash",
          "type": "bytes32"
        }
      ],
      "name": "downloadDipQrCode",
      "outputs": [
        {
          "internalType": "string",
          "name": "",
          "type": "string"
        }
      ],
      "stateMutability": "view",
      "type": "function",
      "constant": true
    },
    {
      "inputs": [
        {
          "internalType": "address",
          "name": "_owner",
          "type": "address"
        },
        {
          "internalType": "string",
          "name": "_idDip",
          "type": "string"
        },
        {
          "internalType": "string",
          "name": "_cin",
          "type": "string"
        },
        {
          "internalType": "string",
          "name": "_diploma",
          "type": "string"
        },
        {
          "internalType": "string",
          "name": "_studentName",
          "type": "string"
        },
        {
          "internalType": "string",
          "name": "_cne",
          "type": "string"
        },
        {
          "internalType": "string",
          "name": "_image",
          "type": "string"
        }
      ],
      "name": "setStudent",
      "outputs": [],
      "stateMutability": "nonpayable",
      "type": "function"
    }
  ],
  "bytecode": "0x6080604052600060015534801561001557600080fd5b50611c91806100256000396000f3fe608060405234801561001057600080fd5b50600436106100a95760003560e01c8063b4989e0511610071578063b4989e0514610178578063bb0a0bfd146101ae578063c7335804146101de578063d02966121461020e578063d444f17514610243578063ed67934414610273576100a9565b8063330023a5146100ae578063448c618e146100ca578063734c5135146100fa57806393199b091461012a578063a05a5afb14610148575b600080fd5b6100c860048036038101906100c39190611649565b6102a3565b005b6100e460048036038101906100df91906117e1565b610477565b6040516100f191906119ea565b60405180910390f35b610114600480360381019061010f9190611777565b61055a565b60405161012191906119cf565b60405180910390f35b6101326107da565b60405161013f9190611ab7565b60405180910390f35b610162600480360381019061015d91906117b8565b6107e0565b60405161016f91906119ea565b60405180910390f35b610192600480360381019061018d91906117b8565b610897565b6040516101a59796959493929190611936565b60405180910390f35b6101c860048036038101906101c391906117e1565b610c89565b6040516101d591906119ea565b60405180910390f35b6101f860048036038101906101f391906117e1565b610d6c565b60405161020591906119cf565b60405180910390f35b610228600480360381019061022391906117e1565b610ddb565b60405161023a96959493929190611a0c565b60405180910390f35b61025d600480360381019061025891906117b8565b61124b565b60405161026a91906119cf565b60405180910390f35b61028d600480360381019061028891906117b8565b61128e565b60405161029a91906119ea565b60405180910390f35b6000866040516020016102b6919061191f565b6040516020818303038152906040528051906020012090508773ffffffffffffffffffffffffffffffffffffffff1660008083815260200190815260200160002060000160009054906101000a900473ffffffffffffffffffffffffffffffffffffffff1673ffffffffffffffffffffffffffffffffffffffff1614610371576040517f08c379a000000000000000000000000000000000000000000000000000000000815260040161036890611a97565b60405180910390fd5b86600080838152602001908152602001600020600101908051906020019061039a929190611345565b508560008083815260200190815260200160002060020190805190602001906103c4929190611345565b508460008083815260200190815260200160002060030190805190602001906103ee929190611345565b50836000808381526020019081526020016000206004019080519060200190610418929190611345565b50826000808381526020019081526020016000206005019080519060200190610442929190611345565b5081600080838152602001908152602001600020600601908051906020019061046c929190611345565b505050505050505050565b606060008260405160200161048c919061191f565b6040516020818303038152906040528051906020012090506000808281526020019081526020016000206006018054600181600116156101000203166002900480601f01602080910402602001604051908101604052809291908181526020018280546001816001161561010002031660029004801561054d5780601f106105225761010080835404028352916020019161054d565b820191906000526020600020905b81548152906001019060200180831161053057829003601f168201915b5050505050915050919050565b600080600090505b82518110156107be57600083828151811061057957fe5b602002602001015160200151604051602001610595919061191f565b6040516020818303038152906040528051906020012090508382815181106105b957fe5b60200260200101516000015160008083815260200190815260200160002060000160006101000a81548173ffffffffffffffffffffffffffffffffffffffff021916908373ffffffffffffffffffffffffffffffffffffffff16021790555083828151811061062457fe5b6020026020010151602001516000808381526020019081526020016000206001019080519060200190610658929190611345565b5083828151811061066557fe5b6020026020010151604001516000808381526020019081526020016000206002019080519060200190610699929190611345565b508382815181106106a657fe5b60200260200101516060015160008083815260200190815260200160002060030190805190602001906106da929190611345565b508382815181106106e757fe5b602002602001015160800151600080838152602001908152602001600020600401908051906020019061071b929190611345565b5083828151811061072857fe5b602002602001015160a00151600080838152602001908152602001600020600501908051906020019061075c929190611345565b5083828151811061076957fe5b602002602001015160c00151600080838152602001908152602001600020600601908051906020019061079d929190611345565b50600160008154809291906001019190505550508080600101915050610562565b506000600154116107d05760006107d3565b60015b9050919050565b60015481565b60606000808381526020019081526020016000206006018054600181600116156101000203166002900480601f01602080910402602001604051908101604052809291908181526020018280546001816001161561010002031660029004801561088b5780601f106108605761010080835404028352916020019161088b565b820191906000526020600020905b81548152906001019060200180831161086e57829003601f168201915b50505050509050919050565b60006020528060005260406000206000915090508060000160009054906101000a900473ffffffffffffffffffffffffffffffffffffffff1690806001018054600181600116156101000203166002900480601f0160208091040260200160405190810160405280929190818152602001828054600181600116156101000203166002900480156109695780601f1061093e57610100808354040283529160200191610969565b820191906000526020600020905b81548152906001019060200180831161094c57829003601f168201915b505050505090806002018054600181600116156101000203166002900480601f016020809104026020016040519081016040528092919081815260200182805460018160011615610100020316600290048015610a075780601f106109dc57610100808354040283529160200191610a07565b820191906000526020600020905b8154815290600101906020018083116109ea57829003601f168201915b505050505090806003018054600181600116156101000203166002900480601f016020809104026020016040519081016040528092919081815260200182805460018160011615610100020316600290048015610aa55780601f10610a7a57610100808354040283529160200191610aa5565b820191906000526020600020905b815481529060010190602001808311610a8857829003601f168201915b505050505090806004018054600181600116156101000203166002900480601f016020809104026020016040519081016040528092919081815260200182805460018160011615610100020316600290048015610b435780601f10610b1857610100808354040283529160200191610b43565b820191906000526020600020905b815481529060010190602001808311610b2657829003601f168201915b505050505090806005018054600181600116156101000203166002900480601f016020809104026020016040519081016040528092919081815260200182805460018160011615610100020316600290048015610be15780601f10610bb657610100808354040283529160200191610be1565b820191906000526020600020905b815481529060010190602001808311610bc457829003601f168201915b505050505090806006018054600181600116156101000203166002900480601f016020809104026020016040519081016040528092919081815260200182805460018160011615610100020316600290048015610c7f5780601f10610c5457610100808354040283529160200191610c7f565b820191906000526020600020905b815481529060010190602001808311610c6257829003601f168201915b5050505050905087565b6060600082604051602001610c9e919061191f565b6040516020818303038152906040528051906020012090506000808281526020019081526020016000206001018054600181600116156101000203166002900480601f016020809104026020016040519081016040528092919081815260200182805460018160011615610100020316600290048015610d5f5780601f10610d3457610100808354040283529160200191610d5f565b820191906000526020600020905b815481529060010190602001808311610d4257829003601f168201915b5050505050915050919050565b60008082604051602001610d80919061191f565b604051602081830303815290604052805190602001209050600080600083815260200190815260200160002060010180546001816001161561010002031660029004905011610dd0576000610dd3565b60015b915050919050565b606080606080606080600087604051602001610df7919061191f565b604051602081830303815290604052805190602001209050600080828152602001908152602001600020600101600080838152602001908152602001600020600201600080848152602001908152602001600020600301600080858152602001908152602001600020600401600080868152602001908152602001600020600501600080878152602001908152602001600020600601858054600181600116156101000203166002900480601f016020809104026020016040519081016040528092919081815260200182805460018160011615610100020316600290048015610f225780601f10610ef757610100808354040283529160200191610f22565b820191906000526020600020905b815481529060010190602001808311610f0557829003601f168201915b50505050509550848054600181600116156101000203166002900480601f016020809104026020016040519081016040528092919081815260200182805460018160011615610100020316600290048015610fbe5780601f10610f9357610100808354040283529160200191610fbe565b820191906000526020600020905b815481529060010190602001808311610fa157829003601f168201915b50505050509450838054600181600116156101000203166002900480601f01602080910402602001604051908101604052809291908181526020018280546001816001161561010002031660029004801561105a5780601f1061102f5761010080835404028352916020019161105a565b820191906000526020600020905b81548152906001019060200180831161103d57829003601f168201915b50505050509350828054600181600116156101000203166002900480601f0160208091040260200160405190810160405280929190818152602001828054600181600116156101000203166002900480156110f65780601f106110cb576101008083540402835291602001916110f6565b820191906000526020600020905b8154815290600101906020018083116110d957829003601f168201915b50505050509250818054600181600116156101000203166002900480601f0160208091040260200160405190810160405280929190818152602001828054600181600116156101000203166002900480156111925780601f1061116757610100808354040283529160200191611192565b820191906000526020600020905b81548152906001019060200180831161117557829003601f168201915b50505050509150808054600181600116156101000203166002900480601f01602080910402602001604051908101604052809291908181526020018280546001816001161561010002031660029004801561122e5780601f106112035761010080835404028352916020019161122e565b820191906000526020600020905b81548152906001019060200180831161121157829003601f168201915b505050505090509650965096509650965096505091939550919395565b60008060008084815260200190815260200160002060010180546001816001161561010002031660029004905011611284576000611287565b60015b9050919050565b60606000808381526020019081526020016000206001018054600181600116156101000203166002900480601f0160208091040260200160405190810160405280929190818152602001828054600181600116156101000203166002900480156113395780601f1061130e57610100808354040283529160200191611339565b820191906000526020600020905b81548152906001019060200180831161131c57829003601f168201915b50505050509050919050565b828054600181600116156101000203166002900490600052602060002090601f01602090048101928261137b57600085556113c2565b82601f1061139457805160ff19168380011785556113c2565b828001600101855582156113c2579182015b828111156113c15782518255916020019190600101906113a6565b5b5090506113cf91906113d3565b5090565b5b808211156113ec5760008160009055506001016113d4565b5090565b60006114036113fe84611b03565b611ad2565b9050808382526020820190508260005b8581101561144357813585016114298882611509565b845260208401935060208301925050600181019050611413565b5050509392505050565b600061146061145b84611b2f565b611ad2565b90508281526020810184848401111561147857600080fd5b611483848285611bd8565b509392505050565b60008135905061149a81611c2d565b92915050565b600082601f8301126114b157600080fd5b81356114c18482602086016113f0565b91505092915050565b6000813590506114d981611c44565b92915050565b600082601f8301126114f057600080fd5b813561150084826020860161144d565b91505092915050565b600060e0828403121561151b57600080fd5b61152560e0611ad2565b905060006115358482850161148b565b600083015250602082013567ffffffffffffffff81111561155557600080fd5b611561848285016114df565b602083015250604082013567ffffffffffffffff81111561158157600080fd5b61158d848285016114df565b604083015250606082013567ffffffffffffffff8111156115ad57600080fd5b6115b9848285016114df565b606083015250608082013567ffffffffffffffff8111156115d957600080fd5b6115e5848285016114df565b60808301525060a082013567ffffffffffffffff81111561160557600080fd5b611611848285016114df565b60a08301525060c082013567ffffffffffffffff81111561163157600080fd5b61163d848285016114df565b60c08301525092915050565b600080600080600080600060e0888a03121561166457600080fd5b60006116728a828b0161148b565b975050602088013567ffffffffffffffff81111561168f57600080fd5b61169b8a828b016114df565b965050604088013567ffffffffffffffff8111156116b857600080fd5b6116c48a828b016114df565b955050606088013567ffffffffffffffff8111156116e157600080fd5b6116ed8a828b016114df565b945050608088013567ffffffffffffffff81111561170a57600080fd5b6117168a828b016114df565b93505060a088013567ffffffffffffffff81111561173357600080fd5b61173f8a828b016114df565b92505060c088013567ffffffffffffffff81111561175c57600080fd5b6117688a828b016114df565b91505092959891949750929550565b60006020828403121561178957600080fd5b600082013567ffffffffffffffff8111156117a357600080fd5b6117af848285016114a0565b91505092915050565b6000602082840312156117ca57600080fd5b60006117d8848285016114ca565b91505092915050565b6000602082840312156117f357600080fd5b600082013567ffffffffffffffff81111561180d57600080fd5b611819848285016114df565b91505092915050565b61182b81611b86565b82525050565b61183a81611b98565b82525050565b600061184b82611b5f565b6118558185611b6a565b9350611865818560208601611be7565b61186e81611c1c565b840191505092915050565b600061188482611b5f565b61188e8185611b7b565b935061189e818560208601611be7565b80840191505092915050565b60006118b7602e83611b6a565b91507f596f7520617265206e6f74207468652061646d696e697374726174696f6e206f60008301527f6620746869732073747564656e740000000000000000000000000000000000006020830152604082019050919050565b61191981611bce565b82525050565b600061192b8284611879565b915081905092915050565b600060e08201905061194b600083018a611822565b818103602083015261195d8189611840565b905081810360408301526119718188611840565b905081810360608301526119858187611840565b905081810360808301526119998186611840565b905081810360a08301526119ad8185611840565b905081810360c08301526119c18184611840565b905098975050505050505050565b60006020820190506119e46000830184611831565b92915050565b60006020820190508181036000830152611a048184611840565b905092915050565b600060c0820190508181036000830152611a268189611840565b90508181036020830152611a3a8188611840565b90508181036040830152611a4e8187611840565b90508181036060830152611a628186611840565b90508181036080830152611a768185611840565b905081810360a0830152611a8a8184611840565b9050979650505050505050565b60006020820190508181036000830152611ab0816118aa565b9050919050565b6000602082019050611acc6000830184611910565b92915050565b6000604051905081810181811067ffffffffffffffff82111715611af957611af8611c1a565b5b8060405250919050565b600067ffffffffffffffff821115611b1e57611b1d611c1a565b5b602082029050602081019050919050565b600067ffffffffffffffff821115611b4a57611b49611c1a565b5b601f19601f8301169050602081019050919050565b600081519050919050565b600082825260208201905092915050565b600081905092915050565b6000611b9182611bae565b9050919050565b60008115159050919050565b6000819050919050565b600073ffffffffffffffffffffffffffffffffffffffff82169050919050565b6000819050919050565b82818337600083830152505050565b60005b83811015611c05578082015181840152602081019050611bea565b83811115611c14576000848401525b50505050565bfe5b6000601f19601f8301169050919050565b611c3681611b86565b8114611c4157600080fd5b50565b611c4d81611ba4565b8114611c5857600080fd5b5056fea2646970667358221220a6f59cdd17fdfa8961ef3d60c8c971771d10e310ceb33fe84244a0d9af7bbf3164736f6c63430007060033",
  "immutableReferences": {},
  "source": "// SPDX-License-Identifier: MIT\n\npragma solidity >=0.7.0 <0.9.0;\npragma abicoder v2;\n\ncontract AuthDoc{\n    struct Student{\n        address owner;\n        string idDip;\n        string cin;\n        string diploma;\n        string studentName;\n        string cne;\n        string image;\n    }\n\n    mapping(bytes32 => Student) public Students;\n\n    uint256 public numberOfStudents = 0;\n\n    constructor(){}\n\n    function addStudent(Student[] memory students) public returns (bool) {\n        for (uint256 i = 0; i < students.length; i++) {\n            bytes32 _hash = keccak256(abi.encodePacked(students[i].idDip));\n            Students[_hash].owner = students[i].owner;\n            Students[_hash].idDip = students[i].idDip;\n            Students[_hash].cin = students[i].cin;\n            Students[_hash].diploma = students[i].diploma;\n            Students[_hash].studentName = students[i].studentName;\n            Students[_hash].cne = students[i].cne;\n            Students[_hash].image = students[i].image;\n\n            numberOfStudents++;\n        }\n\n        return numberOfStudents > 0 ? true : false;\n    }\n\n    // function add(address _owner, string memory _idDip, string memory _cin, string memory _diploma, string memory _studentName, \n    //             string memory _cne, string memory _image) public returns (bytes32) {\n    //     // Student storage student = Students[numberOfStudents];\n\n    //     bytes32 _hash = keccak256(abi.encodePacked(_idDip));\n    //     Students[_hash].owner = _owner;\n    //     Students[_hash].idDip = _idDip;\n    //     Students[_hash].cin = _cin;\n    //     Students[_hash].diploma = _diploma;\n    //     Students[_hash].studentName = _studentName;\n    //     Students[_hash].cne = _cne;\n    //     Students[_hash].image = _image;\n\n    //     numberOfStudents++;\n\n    //     return keccak256(abi.encodePacked(_idDip));\n    // }\n\n    function getStudent(string memory _id) public view \n            returns(string memory, string memory, string memory, string memory, string memory, string memory) { \n        bytes32 _hash = keccak256(abi.encodePacked(_id));\n        return (Students[_hash].idDip, Students[_hash].cin, Students[_hash].diploma, Students[_hash].studentName, \n            Students[_hash].cne, Students[_hash].image);\n    }\n\n    function getIdDip(string memory _id) public view returns(string memory idDip) { \n        bytes32 _hash = keccak256(abi.encodePacked(_id));\n        return Students[_hash].idDip;\n    }\n\n    function getIdDipFromQrCode(bytes32 _hash) public view returns(string memory idDip) {\n        return Students[_hash].idDip;\n    }\n\n    function verifyDoc(string memory _id) public view returns(bool) {\n        bytes32 _hash = keccak256(abi.encodePacked(_id));\n        return bytes(Students[_hash].idDip).length > 0 ? true : false;\n    }\n\n    function verifyQrCode(bytes32 _hash) public view returns(bool) {\n        return bytes(Students[_hash].idDip).length > 0 ? true : false;\n    }\n\n    function downloadDip(string memory _id) public view returns(string memory) {\n        bytes32 _hash = keccak256(abi.encodePacked(_id));\n        return Students[_hash].image;\n    }\n\n    function downloadDipQrCode(bytes32 _hash) public view returns(string memory) {\n        return Students[_hash].image;\n    }\n\n    function setStudent(address _owner, string memory _idDip, string memory _cin, string memory _diploma, string memory _studentName, string memory _cne, string memory _image) public { \n        bytes32 _hash = keccak256(abi.encodePacked(_idDip));\n        require(Students[_hash].owner == _owner, \"You are not the administration of this student\");\n        Students[_hash].idDip = _idDip;\n        Students[_hash].cin = _cin;\n        Students[_hash].diploma = _diploma;\n        Students[_hash].studentName = _studentName;\n        Students[_hash].cne = _cne;\n        Students[_hash].image = _image;\n    } \n\n}",
  "sourcePath": "D:\\PFE_5_MIAGE\\Document-Authentication\\src\\contracts\\AuthDoc.sol",
  "compiler": {
    "name": "solc",
    "version": "0.7.6+commit.7338295f.Emscripten.clang"
  },
  "schemaVersion": "3.4.11",
  "updatedAt": "2023-01-28T13:26:30.624Z",
  "networkType": "ethereum",
  "devdoc": {
    "kind": "dev",
    "methods": {},
    "version": 1
  },
  "userdoc": {
    "kind": "user",
    "methods": {},
    "version": 1
  }
}