{
  "contractName": "AuthDoc",
  "abi": [
    {
      "inputs": [],
      "stateMutability": "nonpayable",
      "type": "constructor"
    },
    {
      "inputs": [
        {
          "internalType": "bytes32",
          "name": "",
          "type": "bytes32"
        }
      ],
      "name": "Students",
      "outputs": [
        {
          "internalType": "address",
          "name": "owner",
          "type": "address"
        },
        {
          "internalType": "string",
          "name": "idDip",
          "type": "string"
        },
        {
          "internalType": "string",
          "name": "cin",
          "type": "string"
        },
        {
          "internalType": "string",
          "name": "diploma",
          "type": "string"
        },
        {
          "internalType": "string",
          "name": "studentName",
          "type": "string"
        },
        {
          "internalType": "string",
          "name": "cne",
          "type": "string"
        },
        {
          "internalType": "string",
          "name": "image",
          "type": "string"
        }
      ],
      "stateMutability": "view",
      "type": "function",
      "constant": true
    },
    {
      "inputs": [],
      "name": "numberOfStudents",
      "outputs": [
        {
          "internalType": "uint256",
          "name": "",
          "type": "uint256"
        }
      ],
      "stateMutability": "view",
      "type": "function",
      "constant": true
    },
    {
      "inputs": [
        {
          "components": [
            {
              "internalType": "address",
              "name": "owner",
              "type": "address"
            },
            {
              "internalType": "string",
              "name": "idDip",
              "type": "string"
            },
            {
              "internalType": "string",
              "name": "cin",
              "type": "string"
            },
            {
              "internalType": "string",
              "name": "diploma",
              "type": "string"
            },
            {
              "internalType": "string",
              "name": "studentName",
              "type": "string"
            },
            {
              "internalType": "string",
              "name": "cne",
              "type": "string"
            },
            {
              "internalType": "string",
              "name": "image",
              "type": "string"
            }
          ],
          "internalType": "struct AuthDoc.Student[]",
          "name": "students",
          "type": "tuple[]"
        }
      ],
      "name": "addStudent",
      "outputs": [
        {
          "internalType": "bool",
          "name": "",
          "type": "bool"
        }
      ],
      "stateMutability": "nonpayable",
      "type": "function"
    },
    {
      "inputs": [
        {
          "internalType": "address",
          "name": "_owner",
          "type": "address"
        },
        {
          "internalType": "string",
          "name": "_idDip",
          "type": "string"
        },
        {
          "internalType": "string",
          "name": "_cin",
          "type": "string"
        },
        {
          "internalType": "string",
          "name": "_diploma",
          "type": "string"
        },
        {
          "internalType": "string",
          "name": "_studentName",
          "type": "string"
        },
        {
          "internalType": "string",
          "name": "_cne",
          "type": "string"
        },
        {
          "internalType": "string",
          "name": "_image",
          "type": "string"
        }
      ],
      "name": "add",
      "outputs": [
        {
          "internalType": "bytes32",
          "name": "",
          "type": "bytes32"
        }
      ],
      "stateMutability": "nonpayable",
      "type": "function"
    },
    {
      "inputs": [
        {
          "internalType": "string",
          "name": "_id",
          "type": "string"
        }
      ],
      "name": "getStudent",
      "outputs": [
        {
          "internalType": "string",
          "name": "idDip",
          "type": "string"
        }
      ],
      "stateMutability": "view",
      "type": "function",
      "constant": true
    },
    {
      "inputs": [
        {
          "internalType": "string",
          "name": "_id",
          "type": "string"
        }
      ],
      "name": "verifyDoc",
      "outputs": [
        {
          "internalType": "bool",
          "name": "",
          "type": "bool"
        }
      ],
      "stateMutability": "view",
      "type": "function",
      "constant": true
    },
    {
      "inputs": [
        {
          "internalType": "bytes32",
          "name": "_hash",
          "type": "bytes32"
        }
      ],
      "name": "verifyQrCode",
      "outputs": [
        {
          "internalType": "bool",
          "name": "",
          "type": "bool"
        }
      ],
      "stateMutability": "view",
      "type": "function",
      "constant": true
    },
    {
      "inputs": [
        {
          "internalType": "string",
          "name": "_id",
          "type": "string"
        }
      ],
      "name": "downloadDip",
      "outputs": [
        {
          "internalType": "string",
          "name": "",
          "type": "string"
        }
      ],
      "stateMutability": "view",
      "type": "function",
      "constant": true
    },
    {
      "inputs": [
        {
          "internalType": "bytes32",
          "name": "_hash",
          "type": "bytes32"
        }
      ],
      "name": "downloadDipQrCode",
      "outputs": [
        {
          "internalType": "string",
          "name": "",
          "type": "string"
        }
      ],
      "stateMutability": "view",
      "type": "function",
      "constant": true
    }
  ],
  "bytecode": "0x6080604052600060015534801561001557600080fd5b5061160b806100256000396000f3fe608060405234801561001057600080fd5b50600436106100935760003560e01c8063a05a5afb11610066578063a05a5afb14610146578063b4989e0514610176578063c7335804146101ac578063d0296612146101dc578063d444f1751461020c57610093565b8063448c618e1461009857806345215049146100c8578063734c5135146100f857806393199b0914610128575b600080fd5b6100b260048036038101906100ad9190611242565b61023c565b6040516100bf919061140f565b60405180910390f35b6100e260048036038101906100dd91906110aa565b61031f565b6040516100ef91906113f4565b60405180910390f35b610112600480360381019061010d91906111d8565b6104e2565b60405161011f91906113d9565b60405180910390f35b610130610762565b60405161013d9190611431565b60405180910390f35b610160600480360381019061015b9190611219565b610768565b60405161016d919061140f565b60405180910390f35b610190600480360381019061018b9190611219565b61081f565b6040516101a39796959493929190611340565b60405180910390f35b6101c660048036038101906101c19190611242565b610c11565b6040516101d391906113d9565b60405180910390f35b6101f660048036038101906101f19190611242565b610c80565b604051610203919061140f565b60405180910390f35b61022660048036038101906102219190611219565b610d63565b60405161023391906113d9565b60405180910390f35b60606000826040516020016102519190611329565b6040516020818303038152906040528051906020012090506000808281526020019081526020016000206006018054600181600116156101000203166002900480601f0160208091040260200160405190810160405280929190818152602001828054600181600116156101000203166002900480156103125780601f106102e757610100808354040283529160200191610312565b820191906000526020600020905b8154815290600101906020018083116102f557829003601f168201915b5050505050915050919050565b600080876040516020016103339190611329565b6040516020818303038152906040528051906020012090508860008083815260200190815260200160002060000160006101000a81548173ffffffffffffffffffffffffffffffffffffffff021916908373ffffffffffffffffffffffffffffffffffffffff1602179055508760008083815260200190815260200160002060010190805190602001906103c8929190610da6565b508660008083815260200190815260200160002060020190805190602001906103f2929190610da6565b5085600080838152602001908152602001600020600301908051906020019061041c929190610da6565b50846000808381526020019081526020016000206004019080519060200190610446929190610da6565b50836000808381526020019081526020016000206005019080519060200190610470929190610da6565b5082600080838152602001908152602001600020600601908051906020019061049a929190610da6565b50600160008154809291906001019190505550876040516020016104be9190611329565b60405160208183030381529060405280519060200120915050979650505050505050565b600080600090505b825181101561074657600083828151811061050157fe5b60200260200101516020015160405160200161051d9190611329565b60405160208183030381529060405280519060200120905083828151811061054157fe5b60200260200101516000015160008083815260200190815260200160002060000160006101000a81548173ffffffffffffffffffffffffffffffffffffffff021916908373ffffffffffffffffffffffffffffffffffffffff1602179055508382815181106105ac57fe5b60200260200101516020015160008083815260200190815260200160002060010190805190602001906105e0929190610da6565b508382815181106105ed57fe5b6020026020010151604001516000808381526020019081526020016000206002019080519060200190610621929190610da6565b5083828151811061062e57fe5b6020026020010151606001516000808381526020019081526020016000206003019080519060200190610662929190610da6565b5083828151811061066f57fe5b60200260200101516080015160008083815260200190815260200160002060040190805190602001906106a3929190610da6565b508382815181106106b057fe5b602002602001015160a0015160008083815260200190815260200160002060050190805190602001906106e4929190610da6565b508382815181106106f157fe5b602002602001015160c001516000808381526020019081526020016000206006019080519060200190610725929190610da6565b506001600081548092919060010191905055505080806001019150506104ea565b5060006001541161075857600061075b565b60015b9050919050565b60015481565b60606000808381526020019081526020016000206006018054600181600116156101000203166002900480601f0160208091040260200160405190810160405280929190818152602001828054600181600116156101000203166002900480156108135780601f106107e857610100808354040283529160200191610813565b820191906000526020600020905b8154815290600101906020018083116107f657829003601f168201915b50505050509050919050565b60006020528060005260406000206000915090508060000160009054906101000a900473ffffffffffffffffffffffffffffffffffffffff1690806001018054600181600116156101000203166002900480601f0160208091040260200160405190810160405280929190818152602001828054600181600116156101000203166002900480156108f15780601f106108c6576101008083540402835291602001916108f1565b820191906000526020600020905b8154815290600101906020018083116108d457829003601f168201915b505050505090806002018054600181600116156101000203166002900480601f01602080910402602001604051908101604052809291908181526020018280546001816001161561010002031660029004801561098f5780601f106109645761010080835404028352916020019161098f565b820191906000526020600020905b81548152906001019060200180831161097257829003601f168201915b505050505090806003018054600181600116156101000203166002900480601f016020809104026020016040519081016040528092919081815260200182805460018160011615610100020316600290048015610a2d5780601f10610a0257610100808354040283529160200191610a2d565b820191906000526020600020905b815481529060010190602001808311610a1057829003601f168201915b505050505090806004018054600181600116156101000203166002900480601f016020809104026020016040519081016040528092919081815260200182805460018160011615610100020316600290048015610acb5780601f10610aa057610100808354040283529160200191610acb565b820191906000526020600020905b815481529060010190602001808311610aae57829003601f168201915b505050505090806005018054600181600116156101000203166002900480601f016020809104026020016040519081016040528092919081815260200182805460018160011615610100020316600290048015610b695780601f10610b3e57610100808354040283529160200191610b69565b820191906000526020600020905b815481529060010190602001808311610b4c57829003601f168201915b505050505090806006018054600181600116156101000203166002900480601f016020809104026020016040519081016040528092919081815260200182805460018160011615610100020316600290048015610c075780601f10610bdc57610100808354040283529160200191610c07565b820191906000526020600020905b815481529060010190602001808311610bea57829003601f168201915b5050505050905087565b60008082604051602001610c259190611329565b604051602081830303815290604052805190602001209050600080600083815260200190815260200160002060010180546001816001161561010002031660029004905011610c75576000610c78565b60015b915050919050565b6060600082604051602001610c959190611329565b6040516020818303038152906040528051906020012090506000808281526020019081526020016000206001018054600181600116156101000203166002900480601f016020809104026020016040519081016040528092919081815260200182805460018160011615610100020316600290048015610d565780601f10610d2b57610100808354040283529160200191610d56565b820191906000526020600020905b815481529060010190602001808311610d3957829003601f168201915b5050505050915050919050565b60008060008084815260200190815260200160002060010180546001816001161561010002031660029004905011610d9c576000610d9f565b60015b9050919050565b828054600181600116156101000203166002900490600052602060002090601f016020900481019282610ddc5760008555610e23565b82601f10610df557805160ff1916838001178555610e23565b82800160010185558215610e23579182015b82811115610e22578251825591602001919060010190610e07565b5b509050610e309190610e34565b5090565b5b80821115610e4d576000816000905550600101610e35565b5090565b6000610e64610e5f8461147d565b61144c565b9050808382526020820190508260005b85811015610ea45781358501610e8a8882610f6a565b845260208401935060208301925050600181019050610e74565b5050509392505050565b6000610ec1610ebc846114a9565b61144c565b905082815260208101848484011115610ed957600080fd5b610ee4848285611552565b509392505050565b600081359050610efb816115a7565b92915050565b600082601f830112610f1257600080fd5b8135610f22848260208601610e51565b91505092915050565b600081359050610f3a816115be565b92915050565b600082601f830112610f5157600080fd5b8135610f61848260208601610eae565b91505092915050565b600060e08284031215610f7c57600080fd5b610f8660e061144c565b90506000610f9684828501610eec565b600083015250602082013567ffffffffffffffff811115610fb657600080fd5b610fc284828501610f40565b602083015250604082013567ffffffffffffffff811115610fe257600080fd5b610fee84828501610f40565b604083015250606082013567ffffffffffffffff81111561100e57600080fd5b61101a84828501610f40565b606083015250608082013567ffffffffffffffff81111561103a57600080fd5b61104684828501610f40565b60808301525060a082013567ffffffffffffffff81111561106657600080fd5b61107284828501610f40565b60a08301525060c082013567ffffffffffffffff81111561109257600080fd5b61109e84828501610f40565b60c08301525092915050565b600080600080600080600060e0888a0312156110c557600080fd5b60006110d38a828b01610eec565b975050602088013567ffffffffffffffff8111156110f057600080fd5b6110fc8a828b01610f40565b965050604088013567ffffffffffffffff81111561111957600080fd5b6111258a828b01610f40565b955050606088013567ffffffffffffffff81111561114257600080fd5b61114e8a828b01610f40565b945050608088013567ffffffffffffffff81111561116b57600080fd5b6111778a828b01610f40565b93505060a088013567ffffffffffffffff81111561119457600080fd5b6111a08a828b01610f40565b92505060c088013567ffffffffffffffff8111156111bd57600080fd5b6111c98a828b01610f40565b91505092959891949750929550565b6000602082840312156111ea57600080fd5b600082013567ffffffffffffffff81111561120457600080fd5b61121084828501610f01565b91505092915050565b60006020828403121561122b57600080fd5b600061123984828501610f2b565b91505092915050565b60006020828403121561125457600080fd5b600082013567ffffffffffffffff81111561126e57600080fd5b61127a84828501610f40565b91505092915050565b61128c81611500565b82525050565b61129b81611512565b82525050565b6112aa8161151e565b82525050565b60006112bb826114d9565b6112c581856114e4565b93506112d5818560208601611561565b6112de81611596565b840191505092915050565b60006112f4826114d9565b6112fe81856114f5565b935061130e818560208601611561565b80840191505092915050565b61132381611548565b82525050565b600061133582846112e9565b915081905092915050565b600060e082019050611355600083018a611283565b818103602083015261136781896112b0565b9050818103604083015261137b81886112b0565b9050818103606083015261138f81876112b0565b905081810360808301526113a381866112b0565b905081810360a08301526113b781856112b0565b905081810360c08301526113cb81846112b0565b905098975050505050505050565b60006020820190506113ee6000830184611292565b92915050565b600060208201905061140960008301846112a1565b92915050565b6000602082019050818103600083015261142981846112b0565b905092915050565b6000602082019050611446600083018461131a565b92915050565b6000604051905081810181811067ffffffffffffffff8211171561147357611472611594565b5b8060405250919050565b600067ffffffffffffffff82111561149857611497611594565b5b602082029050602081019050919050565b600067ffffffffffffffff8211156114c4576114c3611594565b5b601f19601f8301169050602081019050919050565b600081519050919050565b600082825260208201905092915050565b600081905092915050565b600061150b82611528565b9050919050565b60008115159050919050565b6000819050919050565b600073ffffffffffffffffffffffffffffffffffffffff82169050919050565b6000819050919050565b82818337600083830152505050565b60005b8381101561157f578082015181840152602081019050611564565b8381111561158e576000848401525b50505050565bfe5b6000601f19601f8301169050919050565b6115b081611500565b81146115bb57600080fd5b50565b6115c78161151e565b81146115d257600080fd5b5056fea26469706673582212206bb8dcf39c2f395ebadeed3e554e37b6460b92aff7034cf0e42120deb68c26b664736f6c63430007060033",
  "immutableReferences": {},
  "source": "// SPDX-License-Identifier: MIT\n\npragma solidity >=0.7.0 <0.9.0;\npragma abicoder v2;\n\ncontract AuthDoc{\n    struct Student{\n        address owner;\n        string idDip;\n        string cin;\n        string diploma;\n        string studentName;\n        string cne;\n        string image;\n    }\n\n    mapping(bytes32 => Student) public Students;\n\n    uint256 public numberOfStudents = 0;\n\n    constructor(){}\n\n    function addStudent(Student[] memory students) public returns (bool) {\n        for (uint256 i = 0; i < students.length; i++) {\n            bytes32 _hash = keccak256(abi.encodePacked(students[i].idDip));\n            Students[_hash].owner = students[i].owner;\n            Students[_hash].idDip = students[i].idDip;\n            Students[_hash].cin = students[i].cin;\n            Students[_hash].diploma = students[i].diploma;\n            Students[_hash].studentName = students[i].studentName;\n            Students[_hash].cne = students[i].cne;\n            Students[_hash].image = students[i].image;\n\n            numberOfStudents++;\n        }\n\n        return numberOfStudents > 0 ? true : false;\n    }\n\n    function add(address _owner, string memory _idDip, string memory _cin, string memory _diploma, string memory _studentName, \n                string memory _cne, string memory _image) public returns (bytes32) {\n        // Student storage student = Students[numberOfStudents];\n\n        bytes32 _hash = keccak256(abi.encodePacked(_idDip));\n        Students[_hash].owner = _owner;\n        Students[_hash].idDip = _idDip;\n        Students[_hash].cin = _cin;\n        Students[_hash].diploma = _diploma;\n        Students[_hash].studentName = _studentName;\n        Students[_hash].cne = _cne;\n        Students[_hash].image = _image;\n\n        numberOfStudents++;\n\n        return keccak256(abi.encodePacked(_idDip));\n    }\n\n    function getStudent(string memory _id) public view returns(string memory idDip) { \n        bytes32 _hash = keccak256(abi.encodePacked(_id));\n        return (Students[_hash].idDip);\n    }\n\n    function verifyDoc(string memory _id) public view returns(bool) {\n        bytes32 _hash = keccak256(abi.encodePacked(_id));\n        return bytes(Students[_hash].idDip).length > 0 ? true : false;\n    }\n\n    function verifyQrCode(bytes32 _hash) public view returns(bool) {\n        return bytes(Students[_hash].idDip).length > 0 ? true : false;\n    }\n\n    function downloadDip(string memory _id) public view returns(string memory) {\n        bytes32 _hash = keccak256(abi.encodePacked(_id));\n        return Students[_hash].image;\n    }\n\n    function downloadDipQrCode(bytes32 _hash) public view returns(string memory) {\n        return Students[_hash].image;\n    }\n\n    // function setStudent(uint256 _id, string memory idDip, string memory cin, string memory diploma, string memory studentName, string memory cne, string memory image) public { \n    //     Students[_id].idDip = idDip;\n    //     Students[_id].cin = cin;\n    //     Students[_id].diploma = diploma;\n    //     Students[_id].studentName = studentName;\n    //     Students[_id].cne = cne;\n    //     Students[_id].image = image;\n    // } \n\n}",
  "sourcePath": "D:\\Document-Authentication\\src\\contracts\\AuthDoc.sol",
  "compiler": {
    "name": "solc",
    "version": "0.7.6+commit.7338295f.Emscripten.clang"
  },
  "schemaVersion": "3.4.11",
  "updatedAt": "2023-01-12T22:38:58.545Z",
  "networkType": "ethereum",
  "devdoc": {
    "kind": "dev",
    "methods": {},
    "version": 1
  },
  "userdoc": {
    "kind": "user",
    "methods": {},
    "version": 1
  }
}